:020000040800F2
:10000000000002208D2E0008E1140008E31400080F
:10001000E5140008E7140008E914000800000000D7
:10002000000000000000000000000000EB140008C9
:10003000ED14000800000000EF140008F11400089F
:10004000DD2E0008DD2E0008DD2E0008DD2E000864
:10005000DD2E0008DD2E0008DD2E0008F914000852
:10006000DD2E0008DD2E0008DD2E0008DD2E000844
:10007000DD2E0008DD2E0008DD2E0008DD2E000834
:10008000DD2E0008DD2E0008DD2E0008DD2E000824
:10009000DD2E0008DD2E0008DD2E0008DD2E000814
:1000A000DD2E0008DD2E0008DD2E0008DD2E000804
:1000B000DD2E0008DD2E0008DD2E0008DD2E0008F4
:1000C000DD2E0008DD2E0008DD2E0008DD2E0008E4
:1000D000DD2E0008DD2E0008DD2E0008DD2E0008D4
:1000E000DD2E0008DD2E0008DD2E0008DD2E0008C4
:1000F000DD2E0008DD2E0008DD2E0008DD2E0008B4
:10010000DD2E0008DD2E0008DD2E0008DD2E0008A3
:10011000DD2E0008DD2E0008DD2E0008DD2E000893
:10012000DD2E0008DD2E0008DD2E0008DD2E000883
:10013000DD2E0008DD2E0008DD2E0008DD2E000873
:10014000DD2E0008DD2E0008DD2E0008DD2E000863
:10015000DD2E0008DD2E0008DD2E0008DD2E000853
:10016000DD2E0008DD2E0008DD2E0008DD2E000843
:10017000DD2E0008DD2E0008DD2E00080000000046
:08018000DD2E0008DD2E000851
:100188000348044B834202D0034B03B1184770471E
:10019800700000207000002000000000054806499B
:1001A8000B1AD90F01EBA301491002D0034B03B17D
:1001B8001847704770000020700000200000000001
:1001C80010B5064C237843B9FFF7DAFF044B13B197
:1001D8000448AFF300800123237010BD7000002095
:1001E80000000000E02E000808B5044B1BB10449CC
:1001F8000448AFF30080BDE80840CFE700000000E6
:1002080074000020E02E0008014B1868704700BFFA
:100218000000002070B50D4E0D4D761BB61006D0AF
:10022800002455F8043B01349847A642F9D1094EF9
:10023800094D761B02F050FEB61006D0002455F882
:10024800043B01349847A642F9D170BD003000083C
:10025800003000080430000800300008830730B57B
:1002680048D0541E002A3FD0CAB2034601E0013CE0
:100278003AD303F8012B9D07F9D1032C2DD9CDB220
:1002880045EA05250F2C45EA054536D9A4F11002A3
:1002980022F00F0C03F1200EE6444FEA121C03F182
:1002A800100242E9045542E9025510327245F8D16C
:1002B8000CF1010214F00C0F03EB021204F00F0C06
:1002C80013D0ACF1040323F003030433134442F8BE
:1002D800045B9342FBD10CF003042CB1CAB21C445A
:1002E80003F8012B9C42FBD130BD64461346002C19
:1002F800F4D1F9E703461446BFE71A46A446E0E7F7
:100308002DE9F0410E460746002833D083697BB3B8
:1003180084682F4B9C4237D02E4B9C423FD02E4BAB
:100328009C4208BFFC68A3891B0731D523697BB3AE
:100338003578B0463DB934E023685A1C22601D70F8
:1003480018F8015F6DB3A368013B002BA360F3DAD3
:10035800A669B34229462246384601DB0A2DEBD16D
:1003680000F044F80130EBD14FF0FF30BDE8F081E8
:1003780000F012FBBB69BC68002BCAD1384600F0FC
:100388000BFB134B9C42C7D17C68A3891B07CDD4B8
:100398002146384600F08EF80028C9D0E4E7BC684A
:1003A800C1E7A368013B002BA36009DA22460A21B2
:1003B800384600F01BF80130D6D00A20BDE8F0819D
:1003C80023680A22591C21601A701046BDE8F08182
:1003D8004C2F00082C2F00080C2F0008024B014658
:1003E8001868FFF78DBF00BF00000020F8B50D4664
:1003F8001446064608B1836943B3254B9C422AD06C
:10040800244B9C4229D0244B9C4208BFF468A38902
:10041800A269A2601A0722D5236903B32268616919
:10042800D31AEDB299422F4629DD0133A16801396B
:10043800A160511C2160157062699A4216D0A38987
:10044800DB0701D50A2D11D03846F8BD00F0A4FA13
:100458000F4B9C42D4D17468D9E7B468D7E72146DA
:10046800304600F027F838B92369D7E721463046E7
:1004780000F02CF90028E7D04FF0FF37E4E72146D9
:10048800304600F023F90028F6D122680123CDE791
:100498004C2F00082C2F00080C2F000810B4044C17
:1004A80003460A4620685DF8044B1946FFF79EBFCD
:1004B800000000203C4B70B51D6806460C460DB187
:1004C800AB69E3B1394B9C421FD0394B9C424DD0AC
:1004D800384B9C4208BFEC68B4F90C3018079AB244
:1004E80019D5216911B312F001002FD00020A060A6
:1004F80060694042A06100292ED0002070BD2846C6
:1005080000F04AFA294B9C42DFD16C68B4F90C30F0
:1005180018079AB2E5D4D1063ED5520728D42169E6
:1005280043F00803A3819AB20029DCD102F42070B9
:10053800B0F5007FD7D02146304600F091FAB4F9E3
:100548000C3021699AB212F00100CFD1950758BF3B
:100558006069A0600029D0D1120658BF0846CDD5E1
:1005680043F04003A3814FF0FF3070BDAC68B3E7A0
:10057800616B51B104F14402914204D0304600F05D
:10058800FDFAB4F90C300022626321690022C4E943
:10059800001223F02403C3E7092243F0400332602A
:1005A8004FF0FF30A38170BD000000204C2F0008E1
:1005B8002C2F00080C2F00088B891A072DE9F04111
:1005C8000C4680463FD44A68002A58DDE66A002E69
:1005D80052D00022D8F80050C8F8002013F48052F6
:1005E80051D10123216A4046B047431C5ED0A389FC
:1005F800E66A5F0705D56368C01A636B0BB1236CA5
:10060800C01A216A024600234046B047411C3CD12B
:10061800D8F80030002B38D01D2B01D0162B4DD127
:1006280023690022C4E90032616BC8F8005019B38D
:1006380004F14403994202D0404600F09FFA00209A
:100648006063BDE8F0810E69B6B10D680E609A0767
:100658000CBF4B690023AD1B8B600BE02B46324669
:10066800216AA76A4046B847B0F1000CA5EB0C0513
:10067800664413DD002DF1DC0020BDE8F0810A6C32
:10068800002AA3DCF8E7606DB3E700236360236901
:100698002360A389DB04C7D56065C5E7A38943F058
:1006A80040034FF0FF30A381BDE8F081D8F8003057
:1006B800002B9CD01D2B06D0162B04D0A38943F009
:1006C8004003A381D9E7C8F80050D5E738B50B69CE
:1006D800BBB10D46044608B18369B3B10D4B9D42C9
:1006E80011D00D4B9D4213D00C4B9D4208BFE568BD
:1006F800B5F90C302BB129462046BDE83840FFF744
:100708005BBF002038BD6568F2E700F045F9E5E712
:10071800A568EDE74C2F00082C2F00080C2F0008C7
:1007280038B540B303690446E3B1174B1D680DB1F2
:10073800AB69CBB1154B9C420FD0154B9C4221D0D5
:10074800144B9C4208BFEC68B4F90C3053B12146F5
:100758002846BDE83840FFF72FBF6C68B4F90C3065
:10076800002BF4D1002038BD284600F015F9074BBE
:100778009C42E2D1F1E7084B08491868BDE83840C7
:1007880000F04AB9AC68DFE7000000204C2F0008F1
:100798002C2F00080C2F0008082F0008D506000889
:1007A80000207047014900F037B900BFD50600089E
:1007B8000020704770B568224D1E02FB05F50E46F5
:1007C80005F1740100F03CFA044640B100210C30F8
:1007D800C4E90016A06005F16802FFF73FFD204656
:1007E80070BD00BF274B2DE9F0411E68B36907466D
:1007F80053B348364FF00408D6E90134013B04D519
:100808001EE05A1C04F168041AD0B4F90C50013BDC
:10081800002DF6D11C4B6566C4E90055C4E90253A6
:10082800C4E90455A5610822294604F15C00FFF7D4
:1008380015FDC4E90D55C4E912552046BDE8F081FF
:1008480035682DB12E46D7E7304600F01FF8D0E7BF
:100858004FF4D671384600F0F3F9044668B10560E4
:10086800C0F804800C302946A06025464FF4D072A9
:10087800FFF7F4FC34602E46BEE70C2330603B6083
:10088800DBE700BF082F00080100FFFF2DE9F84F44
:10089800344B35491A68816290424FF00003C0E931
:1008A8001233036504BF012383610546FFF79AFFEE
:1008B80068602846FFF796FFA8602846FFF792FF72
:1008C8006F68E86000240423C7E902430822214630
:1008D800C7E90044C7E904447C66BC6107F15C00D1
:1008E800FFF7BCFCDFF88CB0AE68DFF88CA0DFF84F
:1008F8008C90DFF88C801D4BC7F828A0C7E9087BCF
:10090800C7F82C90C7F830800822F360C6E9004485
:10091800C6E904447466B460B461214606F15C001B
:10092800FFF79CFCC6E9086BC6E90AA9C6F830803F
:10093800EE680F4BF360C6E90044C6E904447466E8
:10094800B460B4612146082206F15C00FFF786FC1A
:100958000123C6E9086BC6E90B98C6F828A0AB6165
:10096800BDE8F88F082F0008AD070008090001004E
:1009780012000200210D0008490D0008890D000829
:10098800A90D0008024B0349186800F045B800BFDC
:10099800082F0008D5060008836903B976E7704771
:1009A800704700BF704700BF704700BF704700BF67
:1009B800024B0349186800F00FB800BF0000002080
:1009C800A9070008024B0349186800F005B800BFE2
:1009D80000000020B90700082DE9F041884600F121
:1009E80048070026D7E90154013D0FD4A389012BFC
:1009F80005F1FF3506D9B4F90E300133204601D090
:100A0800C04706436B1C04F16804EFD13F68002F10
:100A1800E8D13046BDE8F0812DE9F843074688461D
:100A280000F148064FF00009D6E90154013D11D400
:100A3800A389012B05F1FF3508D9B4F90E3001332C
:100A4800214603D03846C04749EA00096B1C04F127
:100A58006804EDD13668002EE6D14846BDE8F88333
:100A6800F0B58B890C46990797B007D504F1470371
:100A78000122C4E90432236017B0F0BDB4F90E10A6
:100A8800002905462DDB6A4600F0B6F9002827DB69
:100A9800019E06F470464FF48067A6F50056B6FA34
:100AA80086F639462846760900F0CAF830B3A38995
:100AB8001A4AAA6243F08003C4E90407A3812060AC
:100AC800002ED9D0B4F90E10284600F0ABF9002852
:100AD800D2D0A38923F0030343F00103A381CBE71A
:100AE800A38913F0800F14BF40274FF4806739465D
:100AF8002846002600F0A4F80028D8D1B4F90C3014
:100B08009A05B9D423F0030304F1470243F0020322
:100B18000121C4E90421A3812260ADE7AD070008E3
:100B280070B50C46B1F90E10002996B016461D4650
:100B380013DB6A4600F060F900280EDB019901F426
:100B48007041A1F50051B1FA81F14FF48063490970
:100B580000202960336016B070BDB4F90C30002253
:100B68001B062A6004D540230020336016B070BDF0
:100B78004FF480630020336016B070BD002958D050
:100B880030B551F8043C83B0002BA1F10404B8BF80
:100B9800E418019000F06EF9284A0198136833B1FF
:100BA800A3420DD9216804EB010C63452FD0636083
:100BB800146003B0BDE8304000F05EB9A34210D81D
:100BC8001A465B68002BF9D1116802EB010C6445E9
:100BD80019D02FD36360546003B0BDE8304000F0F3
:100BE8004BB9116802EB010CA44516D022D8216834
:100BF80004EB010C6345EDD11D685B682944C4E929
:100C080000135460D5E7236819441160D1E71D68C3
:100C18005B682944C4E90013CAE7246821445418CE
:100C2800A3421160C5D1D3E900432144C2E90013AE
:100C3800BFE770470C230360BBE700BF8C000020B0
:100C4800F8B5CD1C25F0030508350C2D38BF0C254B
:100C5800002D064623DBA94221D8254F00F00AF9CA
:100C68003A6822B3144603E063682246FBB11C4687
:100C780023685B1BF8D40B2B15D8636894420CBF10
:100C88003B605360304600F0F7F804F10B00231D79
:100C980020F00700C21A01D01B1AA350F8BD0C237C
:100CA80033600020F8BD23601C442560EAE77968BA
:100CB800C9B12946304600F01DF8431C0CD0C41CAD
:100CC80024F00304A04205D0211A304600F012F89F
:100CD800013001D02560D5E70C233046336000F0A1
:100CE800CBF80020F8BD304600F004F87860E0E763
:100CF8008C00002038B5074D0022044608462A60BB
:100D080001F0C8FD431C00D038BD2B68002BFBD078
:100D1800236038BD9400002010B50C46B1F90E10C0
:100D280000F0ACF8002803DB636D0344636510BD75
:100D3800A38923F48053A38110BD00BF002070470E
:100D48002DE9F0410C46B1F90C101F46CB050546BC
:100D580016460BD421F48051A1813B46B4F90E10FC
:100D680032462846BDE8F04100F01EB8B4F90E102E
:100D78000223002200F068F8B4F90C10EAE700BF7B
:100D880010B50C46B1F90E1000F05EF8A389421CAC
:100D98000EBF23F4805343F480536065A38110BDD4
:100DA800B1F90E1000F016B838B50C46084D844657
:100DB800114620461A4600232B60644600F0F6F9D7
:100DC800431C00D038BD2B68002BFBD0236038BDF6
:100DD8009400002038B5074D0022044608462A60D2
:100DE80001F08CFD431C00D038BD2B68002BFBD0D4
:100DF800236038BD9400002070B50C46084D0346AA
:100E08000026204611461C462E6001F07AFD431C40
:100E180000D070BD2B68002BFBD0236070BD00BFD5
:100E28009400002038B5074D0022044608462A6081
:100E380001F06CFD431C00D038BD2B68002BFBD0A3
:100E4800236038BD9400002038B50C46084D844610
:100E5800114620461A4600232B60644601F058FDCF
:100E6800431C00D038BD2B68002BFBD0236038BD55
:100E780094000020704700BF704700BF38B50C468B
:100E8800084D8446114620461A4600232B606446C6
:100E980001F024FD431C00D038BD2B68002BFBD08B
:100EA800236038BD9400002053B94AB9002908BF0F
:100EB80000281CBF4FF0FF314FF0FF3000F074B92D
:100EC800ADF1080C6DE904CE00F006F8DDF804E099
:100ED800DDE9022304B070472DE9F047089D044678
:100EE8008E46002B4DD18A42944669D9B2FA82F2D5
:100EF80052B101FA02F3C2F1200120FA01F10CFA11
:100F080002FC41EA030E94404FEA1C48210CBEFB48
:100F1800F8F61FFA8CF708FB16E341EA034306FBD1
:100F280007F199420AD91CEB030306F1FF3080F060
:100F38001F81994240F21C81023E63445B1AA4B2AD
:100F4800B3FBF8F008FB103344EA034400FB07F74F
:100F5800A7420AD91CEB040400F1FF3380F00A8190
:100F6800A74240F207816444023840EA0640E41B85
:100F780000261DB1D4400023C5E900433146BDE831
:100F8800F0878B4209D9002D00F0EF800026C5E9D3
:100F9800000130463146BDE8F087B3FA83F6002EEB
:100FA8004AD18B4202D3824200F2F980841A61EB63
:100FB800030301209E46002DE0D0C5E9004EDDE781
:100FC80002B9FFDEB2FA82F2002A40F09280A1EB69
:100FD8000C014FEA1C471FFA8CFE0126200CB1FBBE
:100FE800F7F307FB131140EA01410EFB03F08842B7
:100FF80008D91CEB010103F1FF3802D2884200F244
:10100800CB804346091AA4B2B1FBF7F007FB1011D5
:1010180044EA01440EFB00FEA64508D91CEB040473
:1010280000F1FF3102D2A64500F2BB800846A4EBCE
:101038000E0440EA03409CE7C6F12007B34022FAB9
:1010480007FC4CEA030C20FA07F401FA06F31C43E8
:10105800F9404FEA1C4900FA06F3B1FBF9F8200CF5
:101068001FFA8CFE09FB181140EA014108FB0EF03B
:10107800884202FA06F20BD91CEB010108F1FF3A8B
:1010880080F08880884240F28580A8F10208614497
:10109800091AA4B2B1FBF9F009FB101144EA0141A5
:1010A80000FB0EFE8E4508D91CEB010100F1FF3450
:1010B8006CD28E456AD90238614440EA0840A0FBE8
:1010C8000294A1EB0E01A142C846A64656D353D0BE
:1010D8005DB1B3EB080261EB0E0101FA07F722FAE2
:1010E80006F3F1401F43C5E9007100263146BDE80B
:1010F800F087C2F12003D8400CFA02FC21FA03F36E
:10110800914001434FEA1C471FFA8CFEB3FBF7F0EE
:1011180007FB10360B0C43EA064300FB0EF69E4213
:1011280004FA02F408D91CEB030300F1FF382FD2AC
:101138009E422DD9023863449B1B89B2B3FBF7F654
:1011480007FB163341EA034106FB0EF38B4208D92D
:101158001CEB010106F1FF3816D28B4214D9023E6E
:101168006144C91A46EA004638E72E46284605E78C
:101178000646E3E61846F8E64B45A9D2B9EB02085D
:1011880064EB0C0E0138A3E74646EAE7204694E7ED
:101198004046D1E7D0467BE7023B614432E7304620
:1011A80009E76444023842E7704700BF10B51446A7
:1011B8004FF0FF3392B2024801F0FBFA204610BD0F
:1011C800F000002072B6FEE700B595B0302200218D
:1011D80008A8FFF743F800230393049305930693A5
:1011E800079301931E4A116C41F080511164126CEF
:1011F80002F080520192019A02931A4A116841F44E
:1012080080411160126802F480420292029A02221E
:10121800089201210B9110210C910E920F93082333
:1012280010934823119312920423139308A800F0F3
:1012380097FC80B90F23039302210491002305939F
:101248004FF480520692079303A800F0D7FE20B906
:1012580015B05DF804FBFFF7B5FFFFF7B3FF00BF5C
:10126800003802400070004008B501F037F9FFF778
:10127800ABFF00F025F800F085F800F0DBF801F08E
:101288001DFD18B90A48FFF7A9F8FEE70948FFF756
:10129800A5F801F073FD0848FFF7A0F805210748F5
:1012A80001F0E2FD4FF4FA6001F044F9F6E700BFFF
:1012B8006C2F00087C2F00088C2F0008F82E0008DF
:1012C800F0B589B000240394049405940694079417
:1012D8000094294B1A6B42F080021A631A6B02F0D1
:1012E80080020092009A01941A6B42F001021A637C
:1012F8001A6B02F001020192019A02941A6B42F0F1
:1013080002021A631B6B03F002030293029B1B4F3A
:1013180022464FF40161384601F038F8184E22464B
:101328000121304601F032F84FF40163039301259F
:1013380004950594069403A9384600F035FF0395F3
:1013480004950594069403A9304600F02DFF022366
:1013580003934FF404130493059503A9304600F052
:1013680023FF22462146072001F038F8072001F024
:101378006DF809B0F0BD00BF00380240000002401F
:101388000004024008B50D480D4B03604FF482730A
:10139800436000238360C360036143614FF40072BC
:1013A8008261C3610362436283620A23C36200F0FD
:1013B8006BF900B908BDFFF705FFFBE798000020AF
:1013C8000030014000B589B00023039304930593CE
:1013D800069307930268154B9A4202D009B05DF84C
:1013E80004FB0021019103F584335A6C42F48052C6
:1013F8005A645A6C02F480520192019A02911A6B53
:1014080042F001021A631B6B03F001030293029B73
:10141800E0230393022304930323069305230793EE
:1014280003A9034800F0C0FED8E700BF0030014020
:101438000000024008B50A480A4B03604FF4E13344
:10144800436000238360C36003610C2242618361AF
:10145800C36101F07EF900B908BDFFF7B3FEFBE7F1
:10146800F00000200044004000B589B00023039339
:1014780004930593069307930268154B9A4202D08A
:1014880009B05DF804FB0021019103F5FA331A6CE9
:1014980042F400321A641A6C02F400320192019A82
:1014A80002911A6B42F001021A631B6B03F00103ED
:1014B8000293029B0C2303930223049303230693B2
:1014C8000723079303A9034800F06EFED8E700BF7F
:1014D8000044004000000240FEE7FEE7FEE7FEE7AA
:1014E800FEE770477047704708B501F011F808BD6E
:1014F80008B5022000F052FF08BD000082B00021AC
:1015080000910B4B5A6C42F480425A645A6C02F4B4
:1015180080420092009A01911A6C42F080521A643B
:101528001B6C03F080530193019B02B0704700BF0E
:10153800003802402DE9F04782B005468846174634
:101548001E4600F0F1FF0A9B1B1A03EB060900F088
:10155800EBFF82462B4B1B68C3F3CB3309FB03F32A
:1015680001932B689C6838EA04030CBF4FF0010C08
:101578004FF0000CBC4540D0B6F1FF3FF1D000F071
:10158800D3FFA0EB0A00484506D2B9F1000F03D0FB
:10159800019B73BB9946E4E72A68536823F0E0038C
:1015A80053606B68B3F5827F0BD0AB6AB3F5005F0D
:1015B80014D0012385F85130002385F850300320DA
:1015C8001CE0AB68B3F5004F02D0B3F5806FECD1E7
:1015D8002A68136823F040031360E6E72A68136853
:1015E80023F4005313602A68136843F4005313600C
:1015F800DFE7019B013B0193B3E7002002B0BDE8A0
:10160800F08700BF6C00002070B584B004460D461A
:10161800164600920B4601220221FFF78BFFD0B934
:10162800174B1B68174AA2FB03235B0D4FF47A7212
:1016380002FB03F303936368B3F5827F11D0039B26
:101648003BB1039B013B039323689B6813F0800F16
:10165800F5D104B070BD636D43F0200363650320CA
:10166800F7E700962B46002280212046FFF762FF0D
:101678000028EED0636D43F0200363650320E8E79C
:101688006C000020819F5E1600285AD010B50446D1
:10169800436A33B94368B3F5827F05D00023C36139
:1016A80002E00023036143610023A36294F85130F0
:1016B800002B40D0022384F851302268136823F0AD
:1016C80040031360636803F48273A26802F404425F
:1016D8001343E26802F400621343226902F0020233
:1016E8001343626902F001021343A26902F4007213
:1016F8001343E26902F038021343226A02F08002BF
:101708001343A26A02F40052216813430B60638BEF
:1017180003F00403626A02F01002216813434B606D
:101728002268D36923F40063D36100206065012334
:1017380084F8513010BD84F850302046FFF742FE3F
:10174800B8E7012070472DE9F04383B00446894685
:1017580090461D4600F0E8FE94F85160F6B2012E5E
:1017680040F0CC800746B9F1000F00F0C880B8F10E
:10177800000F00F0C48094F85030012B00F0C380B3
:10178800012384F85030032384F851300023636523
:10179800C4F83090A4F83480A4F83680A363A387F3
:1017A800E38763642364A368B3F5004F1ED02368FE
:1017B8001A6812F0400F03D11A6842F040021A600A
:1017C800E368B3F5006F1CD0636813B1B8F1010F7B
:1017D8005FD1226B236812781A73236B013323635A
:1017E800E38E9BB2013B9BB2E38652E0226813680A
:1017F80023F0400313602268136843F480431360A6
:10180800D5E7636813B1B8F1010F15D1226B2368CE
:101818001288DA60236B02332363E38E9BB2013BA9
:101828009BB2E38608E000F07FFEC01BA84202D30B
:10183800B5F1FF3F15D1A5B1E38E9BB2002B42D085
:1018480023689A6812F0020FEDD0226B1288DA60D2
:10185800236B02332363E38E9BB2013B9BB2E38687
:10186800EAE7012384F85130002384F85030032636
:1018780045E0226B12781A73236B01332363B4F8A3
:1018880036C01FFA8CFC0CF1FF3C1FFA8CFCA4F844
:1018980036C0E38E9BB2B3B123689A6812F0020F88
:1018A800E7D100F041FEC01BA84202D3B5F1FF3FCB
:1018B80001D1002DEDD1012384F85130002384F8A3
:1018C800503003261BE03A4629462046FFF79CFE87
:1018D80008B120236365A36833B901932368DA68E4
:1018E80001929B680193019B012384F851300023E6
:1018F80084F85030636D13B9002600E002263046A4
:1019080003B0BDE8F0830226F9E72DE9F04383B080
:101918000446884691461F460A9D00F005FE064685
:1019280094F85130DBB26268012B0AD0B2F5827F9D
:1019380040F00581A268002A40F00581042B40F0A0
:101948000481B8F1000F00F00281B9F1000F00F036
:101958000081002F00F0FF8094F85030012B00F038
:10196800FC80012384F8503094F85130DBB2042B0A
:1019780002D0052384F8513000236365C4F83890F9
:10198800E787A787C4F83080E786A786236463645F
:1019980023681A6812F0400F03D11A6842F0400217
:1019A8001A60E368B3F5006F11D063680BB1012FBB
:1019B8000BD1226B236812781A73236B01332363CC
:1019C800E38E9BB2013B9BB2E386012771E063681B
:1019D8000BB1012F0BD1226B23681288DA60236BBD
:1019E80002332363E38E9BB2013B9BB2E38601275C
:1019F8001BE023689A6812F0010F0ED0E28F92B2B2
:101A08005AB1DA68A36B1A80A36B0233A363E38F1E
:101A18009BB2013B9BB2E387012700F085FD801B49
:101A2800A84202D3B5F1FF3F1ED1E38E9BB21BB98A
:101A3800E38F9BB2002B62D023689A6812F0020FE2
:101A4800D7D0E28E92B2002AD3D0002FD1D0226B09
:101A58001288DA60236B02332363E38E9BB2013B67
:101A68009BB2E3860027C4E7012384F851300023A2
:101A780084F85030032063E023689A6812F0010F5D
:101A88000ED0E28F92B25AB1DA68A36B1A70A36BC8
:101A98000133A363E38F9BB2013B9BB2E38701272A
:101AA80000F042FD831BAB4202D3B5F1FF3F1ED1CC
:101AB800EDB1E38E9BB213B9E38F9BB2FBB1236800
:101AC8009A6812F0020FD7D0E28E92B2002AD3D0D1
:101AD800002FD1D0226B12781A73236B0133236342
:101AE800E38E9BB2013B9BB2E3860027C4E7012348
:101AF80084F85130002384F85030032020E0324627
:101B080029462046FFF780FD90B9A36833B90193B1
:101B18002368DA6801929B680193019B012384F88A
:101B28005130002384F85030636D4BB1012007E039
:101B380020236365002384F85030012000E0022050
:101B480003B0BDE8F0830220FAE70220F8E701209D
:101B5800F6E70120F4E70120F2E70220F0E70000B1
:101B6800002800F0E08170B582B00446036813F0E5
:101B7800010F3BD09F4B9B6803F00C03042B2CD028
:101B88009C4B9B6803F00C03082B21D06368B3F5CA
:101B9800803F4FD0B3F5A02F52D0964B1A6822F44D
:101BA80080321A601A6822F480221A606368002B57
:101BB80050D000F0B9FC05468E4B1B6813F4003F6B
:101BC80014D100F0B1FC401B6428F5D90320B1E121
:101BD800884B5B6813F4800FD8D0864B1B6813F4CE
:101BE800003F03D06368002B00F09F81236813F047
:101BF800020F54D07F4B9B6813F00C0F3ED07D4BE7
:101C08009B6803F00C03082B33D0E368002B68D0E3
:101C1800794B01221A6000F087FC0546754B1B685A
:101C280013F0020F54D100F07FFC401B0228F5D9B5
:101C380003207FE16F4A136843F480331360B5E7EC
:101C48006C4B1A6842F480221A601A6842F4803297
:101C58001A60ABE700F068FC0546664B1B6813F496
:101C6800003FC3D000F060FC401B6428F5D9032076
:101C780060E1604B5B6813F4800FC6D15D4B1B6855
:101C880013F0020F03D0E368012B40F05081594A4A
:101C9800136823F0F803216943EAC103136023683A
:101CA80013F0080F42D063696BB3534B0122C3F89A
:101CB800802E00F039FC05464E4B5B6F13F0020F87
:101CC80034D100F031FC401B0228F5D9032031E162
:101CD800484A136823F0F803216943EAC1031360F3
:101CE800DDE7454B00221A6000F01EFC0546414B1B
:101CF8001B6813F0020FD2D000F016FC401B02281C
:101D0800F5D9032016E13C4B0022C3F8802E00F0E1
:101D18000BFC0546374B5B6F13F0020F06D000F043
:101D280003FC401B0228F5D9032003E1236813F0C4
:101D3800040F77D02F4B1B6C13F0805F33D1002337
:101D480001932C4B1A6C42F080521A641B6C03F0FE
:101D580080530193019B0125284B1B6813F4807F56
:101D680023D0A368012B34D0052B38D0214B1A6F10
:101D780022F001021A671A6F22F004021A67A36898
:101D8800002B3DD000F0D0FB06461A4B1B6F13F01A
:101D9800020F46D100F0C8FB801B41F288339842FD
:101DA800F3D90320C6E00025D6E7144A136843F4A4
:101DB8008073136000F0B8FB0646104B1B6813F4E1
:101DC800807FCED100F0B0FB801B0228F5D903201C
:101DD800B0E0084A136F43F001031367CFE7054BE0
:101DE8001A6F42F004021A671A6F42F001021A676A
:101DF800C5E700BF003802400000474200700040BD
:101E080000F092FB0646524B1B6F13F0020F08D0EE
:101E180000F08AFB801B41F288339842F3D90320F3
:101E280088E0EDB9A369002B00F08380484A9268E6
:101E380002F00C02082A51D0022B17D0454B002281
:101E48001A6600F071FB0446414B1B6813F0007FD3
:101E580042D000F069FB001B0228F5D9032069E095
:101E68003B4A136C23F080531364DBE7394B0022A1
:101E78001A6600F059FB0546354B1B6813F0007FC6
:101E880006D000F051FB401B0228F5D9032051E091
:101E9800E369226A1343626A43EA8213A26A520818
:101EA800013A43EA0243E26A43EA0263284A53607A
:101EB800284B01221A6600F037FB0446244B1B68A6
:101EC80013F0007F06D100F02FFB001B0228F5D984
:101ED80003202FE000202DE000202BE0012B2BD049
:101EE8001B4B5B6803F48001E269914226D103F041
:101EF8003F02216A8A4223D1616A47F6C0721A40BA
:101F0800B2EB811F1ED103F44031A26A5208013A94
:101F1800B1EB024F18D103F07063E26AB3EB026FC2
:101F280014D1002006E001207047012002E00120C2
:101F380000E0002002B070BD0120FBE70120F9E7B6
:101F48000120F7E70120F5E70120F3E70120F1E799
:101F5800003802400000474208B5254B9B6803F053
:101F68000C03042B3FD0082B3FD1214B5A6802F0B9
:101F78003F025B6813F4800F12D01D4B5968C1F300
:101F880088111C480023A1FB0001FEF78DFF184BA8
:101F98005B68C3F3014301335B00B0FBF3F025E05A
:101FA800134B5968C1F3881C4FEA4C11B1EB0C0074
:101FB8006EEB0E0E4FEA8E1343EA90638101091A05
:101FC80063EB0E03DB0043EA5173C90011EB0C0C01
:101FD80043F10003990200234FEA8C2041EA9C5107
:101FE800FEF762FFD3E7034800E0034808BD00BFDF
:101FF8000038024040787D010024F400002800F0F9
:102008009B8070B50D4604464F4B1B6803F00703D1
:102018008B4208D2CBB24C4A1370136803F0070303
:102028008B4240F08B80236813F0020F17D013F017
:10203800040F04D0454A936843F4E053936023683F
:1020480013F0080F04D0414A936843F46043936047
:102058003E4A936823F0F003A1680B43936023681A
:1020680013F0010F32D06368012B21D09A1E012A88
:1020780025D9364A126812F0020F61D033498A68AE
:1020880022F0030213438B6000F04EFA06462F4BF2
:102098009B6803F00C036268B3EB820F16D000F064
:1020A80043FA801B41F288339842F0D9032042E07A
:1020B800264A126812F4003FE0D101203BE0234A8F
:1020C800126812F0007FD9D1012034E01E4B1B6842
:1020D80003F00703AB4207D9EAB21B4B1A701B681F
:1020E80003F00703AB422DD1236813F0040F06D089
:1020F800164A936823F4E053E1680B43936023681E
:1021080013F0080F07D0114A936823F4604321693C
:1021180043EAC1039360FFF71FFF0C4B9B68C3F3AF
:1021280003130B4AD35CD8400A4B18600A4B186853
:1021380000F0AEF9002070BD012070470120FAE7D9
:102148000120F8E70120F6E7003C02400038024091
:10215800982F00086C00002068000020014B1868C8
:10216800704700BF6C00002008B5FFF7F7FF044B6D
:102178009B68C3F38223034AD35CD84008BD00BFE1
:1021880000380240A82F000808B5FFF7E7FF044B06
:102198009B68C3F34233034AD35CD84008BD00BFF1
:1021A80000380240A82F000800230F2B00F2E4801B
:1021B80070B582B060E085685E000324B44025EA0B
:1021C8000405CC68B4402C438460456825EA0205C0
:1021D8004C68C4F300129A402A4342605AE0DC0873
:1021E800083450F8246003F0070295000F22AA4033
:1021F80026EA020E0A69AA4042EA0E0240F82420A2
:102208005CE0072200E0002202FA0EF22A430234C0
:102218005A4D45F824205A4A94686FEA0C0224EA79
:102228000C054E6816F4801F01D04CEA0405544C86
:10223800A560E46802EA04054E6816F4001F01D0A0
:102248004CEA04054E4CE560646802EA04054E68F1
:1022580016F4003F01D04CEA0405494C6560246837
:1022680022404D6815F4803F01D04CEA0402444CEA
:10227800226001330F2B7DD801229A400C6804EAB2
:10228800020C32EA0404F4D14C6804F00304013C63
:10229800012C90D94A6802F00302032A09D0C468C5
:1022A8005D000322AA4024EA02048A68AA40224365
:1022B800C2604A6802F00302022A90D004684FEA1A
:1022C800430E032202FA0EF224EA02044A6802F0DC
:1022D800030202FA0EF2224302604A6812F4403FF7
:1022E800C7D000220192274A546C44F480445464B5
:1022F800526C02F480420192019A9C08A51C1F4A64
:1023080052F8255003F003024FEA820E0F2202FA18
:102318000EF225EA02051C4A90423FF474AF02F51A
:10232800806290421AD002F58062904218D002F57D
:102338008062904216D002F58062904214D002F575
:102348008062904212D002F58062904210D002F56D
:10235800806290423FF455AF082255E7012253E7C7
:10236800022251E703224FE704224DE705224BE7FB
:10237800062249E702B070BD704700BF003801402F
:10238800003C014000380240000002400AB181616F
:1023980070470904816170477047000008B5054B14
:1023A8005B69034200D108BD024B5861FFF7F4FF97
:1023B800F9E700BF003C0140074AD36823F4E06313
:1023C8001B041B0C000200F4E060034343F0BF63EE
:1023D80043F40033D360704700ED00E000B5194BBB
:1023E800DB68C3F30223C3F1070CBCF1040F28BF59
:1023F8004FF0040C03F1040EBEF1060F18D9033B8D
:102408004FF0FF3E0EFA0CFC21EA0C0199400EFA3F
:1024180003F322EA0303194300280BDB0901C9B2BD
:1024280000F1604000F5614080F800135DF804FB9E
:102438000023E5E700F00F000901C9B2024B195467
:10244800F4E700BF00ED00E014ED00E0002807DB32
:1024580000F01F02400901239340024A42F820304D
:10246800704700BF00E100E00138B0F1807F0BD277
:102478004FF0E0235861054AF02182F8231000202C
:10248800986107221A6170470120704700ED00E04B
:1024980010B504460E4B18784FF47A73B3FBF0F37B
:1024A8000C4A1068B0FBF3F0FFF7DEFF68B90F2C99
:1024B80001D901200AE0002221464FF0FF30FFF742
:1024C8008DFF054B1C60002000E0012010BD00BFFF
:1024D800640000206C0000206800002008B50B4B49
:1024E8001A6842F400721A601A6842F480621A602C
:1024F8001A6842F480721A600320FFF75DFF0F200C
:10250800FFF7C6FFFEF7FAFF002008BD003C0240B7
:10251800034A1168034B1B780B441360704700BFD4
:102528003801002064000020014B1868704700BF84
:102538003801002038B50446FFF7F6FF0546B4F128
:10254800FF3F02D0044B1B781C44FFF7EDFF401BF4
:10255800A042FAD338BD00BF64000020026802F12F
:102568000C0353E8003F23F490730C3242E8003127
:102578000029F3D1026802F1140353E8003F23F065
:102588000103143242E800310029F3D1036B012B17
:1025980005D0202380F84230002303637047026887
:1025A80002F10C0353E8003F23F010030C3242E819
:1025B80000310029F3D1ECE738B504460268136905
:1025C80023F44053C1680B431361836802691343C2
:1025D80042691343C2691A430168CB6823F416435E
:1025E80023F00C031343CB600268536923F4407350
:1025F80081690B4353610368314A934206D002F55F
:102608008062934202D0FFF7AFFD01E0FFF7BCFD07
:10261800E369B3F5004F29D00021031849411B187D
:1026280041F10001C90041EA5371DB0018186368E1
:102638004FEA83024FEA937341F10001FEF734FC3D
:10264800204DA5FB00325109642303FB11031B0134
:102658003233A5FB03235B0903F0F00202EB0112FE
:1026680003F00F03216813448B6038BD0023021860
:1026780043EB0301121841F10001C90041EA52710C
:10268800D200101841F10001626892185B41FEF710
:102698000BFC0C4DA5FB00325109642303FB11030D
:1026A800DB003233A5FB03235B095A0002F4F872FE
:1026B80002EB011203F00703216813448B60D4E78F
:1026C800001001401F85EB512DE9F04383B005460A
:1026D8000E4617469946DDF828802C68246836EAA5
:1026E80004030CBF4FF0010C4FF0000CBC4528D17F
:1026F800B8F1FF3FF1D0FFF717FFA0EB0900404505
:1027080023D8B8F1000F22D02B68DA6812F0040F32
:10271800E3D0802EE1D0402EDFD01A6812F0080FE7
:10272800DBD0002401941A6801925B680193019B35
:102738002846FFF713FF08236B6485F84040012003
:1027480000E0002003B0BDE8F0830320FAE703208F
:10275800F8E760B310B5044690F8413013B324236A
:1027680084F841302268D36823F40053D3602046AC
:10277800FFF722FF2268136923F49043136122684C
:10278800536923F02A0353612268D36843F4005342
:10279800D36000206064202384F8413084F84230FC
:1027A800606310BD80F84030FEF75EFED7E7012079
:1027B80070472DE9F04182B01E4690F84130DBB2F7
:1027C800202B56D104460D469046002955D00AB90B
:1027D80001204FE000234364212380F84130FFF7B4
:1027E800A3FE0746A4F82480A4F82680A368B3F5BE
:1027F800805F02D04FF0000814E023692BB34FF03C
:1028080000080FE0202384F84130032032E038F834
:10281800023B2268C3F308035360E28C92B2013A88
:1028280092B2E284E38C9BB293B100963B460022BD
:1028380080212046FFF748FF0028E3D1002DE6D08D
:1028480015F8012B23685A60E7E7A8460025E9E751
:1028580000963B46002240212046FFF735FF18B975
:10286800202384F8413005E0202384F841300320F8
:1028780000E0022002B0BDE8F0810120FAE7000084
:10288800034AD2F8883043F47003C2F8883070479E
:1028980000ED00E010B503460C4A0D490D480068EC
:1028A80040B10C4800680344521A934206D8094ABA
:1028B800136010BD0748084C0460F2E7FDF7A4FC5C
:1028C8000C2303604FF0FF30F3E700BF0000022045
:1028D800000400003C0100204001002070B50C46B7
:1028E8001646002506E0AFF30080214601F8010BEB
:1028F80001350C46B542F6DB304670BD4FF0FF306F
:1029080070474FF400534B60002070470120704718
:102918000020704708B501224FF400610148FFF715
:1029280035FD08BD0000024008B500224FF40061E3
:102938000148FFF72BFD08BD0000024008B5FFF76E
:10294800E9FF9620FFF7F6FDFFF7EEFF9620FFF769
:10295800F1FD08BD08B5002210210248FFF716FD59
:1029680008BD00BF0000024008B50122102102483E
:10297800FFF70CFD08BD00BF0000024000B583B0A2
:102988008DF807004FF0FF3301220DF107010348CE
:10299800FEF7D9FE03B05DF804FB00BF98000020E5
:1029A80000B585B08DF80F0000238DF80E304FF07C
:1029B800FF33009301230DF10E020DF10F010448BE
:1029C800FEF7A3FF9DF80E0005B05DF804FB00BFFD
:1029D8009800002038B5002440F6C3139C420CD858
:1029E800FFF7B8FF4420FFF7DBFF0546FFF7BCFF02
:1029F800FF2D04D00134A4B2EEE7002000E001204E
:102A080038BD10B50446FFF7A5FF2046FFF7B6FF0F
:102A1800FFF7AAFFFFF7DEFF10BD70B506460D46AB
:102A2800002404E0305DFFF7A9FF0134E4B2AC42B2
:102A3800F8D370BD70B506460C461546FFF78AFFF9
:102A48003046FFF79BFF29462046FFF7E6FFFFF7D2
:102A58008BFFFFF7BFFF70BD00B585B00023009363
:102A680001930293CDF80B304FEA102C8DF800C07B
:102A78008DF801208DF8020008E011F803C003F179
:102A88001300684400F810CC0133DBB29342F4D34E
:102A98000332D2B269461120FFF7CCFFFFF79AFF45
:102AA80005B05DF804FB00B583B010F0800F10D1BD
:102AB80018238DF804308DF8050000238DF80630B2
:102AC800032201A94FF40850FFF7C6FF03B05DF8D1
:102AD80004FB7F20ECE7000010B52DED028B82B0DF
:102AE800B0EE408ADFED457AB4EEE70AF1EE10FA6F
:102AF80006D8DFED437AB4EEE70AF1EE10FA2CDAE5
:102B0800DFED407AB4EEE78AF1EE10FA06D8DFED91
:102B18003E7AB4EEE78AF1EE10FA2FDADFED3B7A6F
:102B2800B4EEE78AF1EE10FA06D8DFED397AB4EEA2
:102B3800E78AF1EE10FA24DADFED367AB4EEE78AA6
:102B4800F1EE10FA55D8DFED347AB4EEE78AF1EEFB
:102B580010FA50DB0523182401E00023042408336D
:102B68008DF80430012201A942F25100FFF774FFE9
:102B780050B9002002B0BDEC028B10BD022308241E
:102B8800EDE703230C24EAE79FED240A28EE008AE8
:102B9800234BB3FBF4F307EE903AB8EE677AC8EE2E
:102BA800077ABCEEE77A17EE102A013A07EE102AE8
:102BB800B8EE477A77EEC77A9FED1A7A67EE877A8A
:102BC800FCEEE77A17EE903A180CC3F307218DF85C
:102BD80000208DF801008DF802108DF803300422D2
:102BE80069464FF48040FFF737FF003818BF0120CF
:102BF800C0E70020BEE70020BCE700BF00408344D8
:102C080000805444004003440080D4430000AF4394
:102C180000008E4300002F4300000E430024744937
:102C2800008793030000004900B583B08DF80700C2
:102C380001220DF107013420FFF7FCFEFFF7CAFE61
:102C480003B05DF804FB70B506460D46002405E0A8
:102C58000020FFF7A5FE30550134E4B2AC42F7D3AB
:102C680070BD38B504460D46FFF7B4FE00B938BD4F
:102C7800FFF770FE4420FFF793FE29462046FFF732
:102C8800E2FFFFF771FE0120F1E700B583B00120F4
:102C9800FFF7B7FE0023019304210DEB0100FFF7B6
:102CA800E0FF18B9002003B05DF804FB9DF806307A
:102CB8009DF8070000EB032080B2F4E700B585B06B
:102CC800FFF73CFE114B93E803000190ADF80810A4
:102CD800062201A90220FFF7ADFEFFF77BFE622363
:102CE8008DF80C30012203A90020FFF7B5FE7F20E4
:102CF800FFF7D9FEFFF7C9FF44F26343984203D1B7
:102D0800012005B05DF804FB0020FAE7002F000859
:102D18000246A0F14103DBB2192B04D8A0F141020D
:102D2800144B985C7047A0F16103DBB2192B04D8EF
:102D3800A0F161020F4B985C7047A0F13003DBB241
:102D4800092B12D8A0F116020A4B985C7047013380
:102D5800DBB2102B0CD8084911F813109142F6D1A8
:102D6800054901EB43014878F1E700231846F0E7ED
:102D7800704700BFB02F0008D42F000800B583B0FB
:102D8800084B019304220DEB02014FF40050FFF7AA
:102D980063FEDFED050A9FED050AFFF79DFE03B010
:102DA8005DF804FB00010100000000006626D54321
:102DB80008B50720FFF738FF012211460148FFF741
:102DC800E5FA08BD0004024008B5002201210348C5
:102DD800FFF7DCFA0320FFF727FF08BD00040240D5
:102DE80008B5FFF7A7FB08BD70B5202815D0FFF779
:102DF8008FFF0646C0F3800500F002031D438300E1
:102E080003F004031D43062D94BF6D42C5F101056F
:102E1800EDB20735EDB2072411E04FF4D270FFF799
:102E2800DFFF20E00020FFF7C3FF3C20FFF7D8FFBB
:102E38000020FFF7C9FF3C20FFF7D2FF013CA54265
:102E48000EDA46FA04F313F0010FEBD00120FFF776
:102E5800AFFFB420FFF7C4FF0120FFF7B5FFEAE793
:102E68007820FFF7BDFF70BD70B506460D460024FB
:102E780004E0305DFFF7B8FF0134A4B2AC42F8D3E8
:102E880070BD0000DFF834D0FFF7FAFC0C480D499C
:102E98000D4A002302E0D458C4500433C4188C42AD
:102EA800F9D30A4A0A4C002301E013600432A24213
:102EB800FBD3FDF7AFF9FEF7D7F970470000022002
:102EC800000000207000002008300008700000207A
:102ED80040010020FEE70000F8B500BFF8BC08BCC0
:102EE8009E467047F8B500BFF8BC08BC9E467047C0
:102EF80048656C6C6F000000010001C9C3800000C8
:102F08000400002000000000000000000000000095
:102F180000000000000000000000000000000000A9
:102F28000000000000000000000000000000000099
:102F38000000000000000000000000000000000089
:102F48000000000000000000000000000000000079
:102F58000000000000000000000000000000000069
:102F680000000000726164696F206661696C6564C5
:102F78000D000000726164696F2073756363657387
:102F8800730D000061667465722073657475700056
:102F98000000000000000000010203040607080901
:102FA80000000000010203044281A1860421C60139
:102FB8000279A641C282E661D1460684261166914D
:102FC800B1C1FD7D3D1D0D0585C5E5F52CCF2E57FD
:102FD80021AF3AE33BAB28B529B7224B406B2645D6
:102FE8003F332D872B552F953D8D2A915C7B000013
:082FF800E8DEFF7F010000008C
:04300000F1010008D2
:04300400C9010008F6
:1030080004000020000000004C2F00082C2F0008AE
:103018000C2F000800000000000000000000000065
:103028000000000000000000000000000000000098
:103038000000000000000000000000000000000088
:103048000000000000000000000000000000000078
:103058000000000000000000000000000000000068
:103068000000000001000000100000000024F4002F
:0400000508002E8D34
:00000001FF
